{
  "_format": "hh-sol-artifact-1",
  "contractName": "IntentManager",
  "sourceName": "contracts/IntentManager.sol",
  "abi": [
    {
      "inputs": [
        {
          "internalType": "address",
          "name": "_multiSigWalletAddress",
          "type": "address"
        }
      ],
      "stateMutability": "nonpayable",
      "type": "constructor"
    },
    {
      "anonymous": false,
      "inputs": [
        {
          "indexed": true,
          "internalType": "address",
          "name": "user",
          "type": "address"
        },
        {
          "indexed": true,
          "internalType": "uint256",
          "name": "intentId",
          "type": "uint256"
        }
      ],
      "name": "IntentCancelled",
      "type": "event"
    },
    {
      "anonymous": false,
      "inputs": [
        {
          "indexed": true,
          "internalType": "address",
          "name": "user",
          "type": "address"
        },
        {
          "indexed": true,
          "internalType": "uint256",
          "name": "intentId",
          "type": "uint256"
        },
        {
          "indexed": false,
          "internalType": "address",
          "name": "token",
          "type": "address"
        },
        {
          "indexed": false,
          "internalType": "address",
          "name": "recipient",
          "type": "address"
        },
        {
          "indexed": false,
          "internalType": "uint256",
          "name": "amount",
          "type": "uint256"
        },
        {
          "indexed": false,
          "internalType": "uint256",
          "name": "frequency",
          "type": "uint256"
        },
        {
          "indexed": false,
          "internalType": "uint256",
          "name": "nextExecution",
          "type": "uint256"
        }
      ],
      "name": "IntentCreated",
      "type": "event"
    },
    {
      "anonymous": false,
      "inputs": [
        {
          "indexed": true,
          "internalType": "address",
          "name": "user",
          "type": "address"
        },
        {
          "indexed": true,
          "internalType": "uint256",
          "name": "intentId",
          "type": "uint256"
        },
        {
          "indexed": false,
          "internalType": "uint256",
          "name": "timestamp",
          "type": "uint256"
        }
      ],
      "name": "IntentExecuted",
      "type": "event"
    },
    {
      "inputs": [
        {
          "internalType": "uint256",
          "name": "intentId",
          "type": "uint256"
        }
      ],
      "name": "cancelIntent",
      "outputs": [],
      "stateMutability": "nonpayable",
      "type": "function"
    },
    {
      "inputs": [
        {
          "internalType": "address",
          "name": "token",
          "type": "address"
        },
        {
          "internalType": "address",
          "name": "recipient",
          "type": "address"
        },
        {
          "internalType": "uint256",
          "name": "amount",
          "type": "uint256"
        },
        {
          "internalType": "uint256",
          "name": "frequency",
          "type": "uint256"
        },
        {
          "internalType": "uint256",
          "name": "startTime",
          "type": "uint256"
        }
      ],
      "name": "createIntent",
      "outputs": [],
      "stateMutability": "nonpayable",
      "type": "function"
    },
    {
      "inputs": [
        {
          "internalType": "address",
          "name": "user",
          "type": "address"
        },
        {
          "internalType": "uint256",
          "name": "intentId",
          "type": "uint256"
        }
      ],
      "name": "executeIntent",
      "outputs": [],
      "stateMutability": "nonpayable",
      "type": "function"
    },
    {
      "inputs": [],
      "name": "multiSigWalletAddress",
      "outputs": [
        {
          "internalType": "address",
          "name": "",
          "type": "address"
        }
      ],
      "stateMutability": "view",
      "type": "function"
    },
    {
      "inputs": [
        {
          "internalType": "address",
          "name": "",
          "type": "address"
        },
        {
          "internalType": "uint256",
          "name": "",
          "type": "uint256"
        }
      ],
      "name": "userIntents",
      "outputs": [
        {
          "internalType": "address",
          "name": "token",
          "type": "address"
        },
        {
          "internalType": "address",
          "name": "recipient",
          "type": "address"
        },
        {
          "internalType": "uint256",
          "name": "amount",
          "type": "uint256"
        },
        {
          "internalType": "uint256",
          "name": "frequency",
          "type": "uint256"
        },
        {
          "internalType": "uint256",
          "name": "nextExecution",
          "type": "uint256"
        },
        {
          "internalType": "bool",
          "name": "active",
          "type": "bool"
        }
      ],
      "stateMutability": "view",
      "type": "function"
    }
  ],
  "bytecode": "0x60803461007457601f61076e38819003918201601f19168301916001600160401b038311848410176100795780849260209460405283398101031261007457516001600160a01b0381169081900361007457600180546001600160a01b0319169190911790556040516106de90816100908239f35b600080fd5b634e487b7160e01b600052604160045260246000fdfe60806040908082526004918236101561001757600080fd5b600091823560e01c9081632a55acd9146103fd575080636d1f451b146103d557806389c9c3ae1461033e578063a0a31aac1461028d5763ae2665261461005c57600080fd5b3461028957806003193601126102895761007461065b565b60015460249485359390926001600160a01b039283163303610247578216928386526020928684526100a886848920610676565b5060ff6005820154161561020e5782810191825442106101c257858a6064898c85875416956001880154169560028801548b5197889687956323b872dd60e01b87528d87015285015260448401525af180156101b857610154575b5060030154918154928301809311610142575055514281527fcc5aed50c55175ccf1535807405df838bbb6e8a238b895782fd7e60065b6c3819190a380f35b634e487b7160e01b8852601190528787fd5b853d87116101b1575b601f8101601f1916820167ffffffffffffffff81118382101761019f578791839188528101031261019b5751801515036101975738610103565b8780fd5b8880fd5b634e487b7160e01b8b52604186528b8bfd5b503d61015d565b85513d8b823e3d90fd5b845162461bcd60e51b81528085018790526021818c01527f496e74656e7420657865637574696f6e2074696d65206e6f74207265616368656044820152601960fa1b6064820152608490fd5b835162461bcd60e51b81528084018690526014818b015273496e74656e74206973206e6f742061637469766560601b6044820152606490fd5b815162461bcd60e51b8152602081860152601f818901527f4f6e6c79204d756c746953696757616c6c65742063616e2065786563757465006044820152606490fd5b5080fd5b50823461033a57602036600319011261033a578035913384528360205260056102b884838720610676565b50019182549160ff8316156102f757505060ff19169055337fb2d36ad037add51bc469c6077418a42e773a3d51a36c9a8f7b5cc6815c7c24a38380a380f35b906020606492519162461bcd60e51b8352820152601a60248201527f496e74656e7420697320616c726561647920696e6163746976650000000000006044820152fd5b8280fd5b5082903461033a578060031936011261033a5761035961065b565b6001600160a01b0390811684526020849052818420805460243595929492908610156103d2575060c09461038c91610676565b509083825416936001830154169260028301549060ff600560038601549486015495015416948151968752602087015285015260608401526080830152151560a0820152f35b80fd5b503461028957816003193601126102895760015490516001600160a01b039091168152602090f35b84929150346106575760a03660031901126106575761041a61065b565b6001600160a01b039260249081358581169081900361019757604435926064359460843596861561060b57504287106105c95783519060c0820182811067ffffffffffffffff8211176105b7578b92918a91875216988982526020820185815286830188815260608401918a835260808501938c85528960a0870197600189523381528060205220805490680100000000000000008210156105a157906104c691600182018155610676565b96909661058d57908060059796959493925116906bffffffffffffffffffffffff60a01b91828854161787556001870192511690825416179055516002840155516003830155518b820155019051151560ff80198354169116179055338952886020528289205497600019890198891161057c57505081519586526020860152840152606083015260808201527f2e58adf17e41854745be7217746dcb6f93bc0e0c30c3916830b61196c5c4b53560a03392a380f35b634e487b7160e01b8a526011905288fd5b5050634e487b7160e01b8f52508d8d52858efd5b50505050858e60418f634e487b7160e01b835252fd5b634e487b7160e01b8c5260418b52838cfd5b835162461bcd60e51b81526020818b01819052818401527f53746172742074696d65206d75737420626520696e20746865206675747572656044820152606490fd5b62461bcd60e51b815260208a8201526023838201527f4672657175656e6379206d7573742062652067726561746572207468616e207a60448201526265726f60e81b6064820152608490fd5b8380fd5b600435906001600160a01b038216820361067157565b600080fd5b8054821015610692576000526006602060002091020190600090565b634e487b7160e01b600052603260045260246000fdfea26469706673582212208ebbaf62259de9b1dc01ad7a7ee404806250cfcbb1786cfdef39878ab8ca2a8264736f6c63430008110033",
  "linkReferences": {},
  "deployedLinkReferences": {}
}