{
  "_format": "hh-sol-artifact-1",
  "contractName": "MultiSigWallet",
  "sourceName": "contracts/MultiSigWallet.sol",
  "abi": [
    {
      "inputs": [
        {
          "internalType": "address[]",
          "name": "_owners",
          "type": "address[]"
        },
        {
          "internalType": "uint256",
          "name": "_requiredConfirmations",
          "type": "uint256"
        },
        {
          "internalType": "uint256",
          "name": "_thresholdAmount",
          "type": "uint256"
        }
      ],
      "stateMutability": "nonpayable",
      "type": "constructor"
    },
    {
      "anonymous": false,
      "inputs": [
        {
          "indexed": true,
          "internalType": "address",
          "name": "sender",
          "type": "address"
        },
        {
          "indexed": false,
          "internalType": "uint256",
          "name": "amount",
          "type": "uint256"
        }
      ],
      "name": "Deposit",
      "type": "event"
    },
    {
      "anonymous": false,
      "inputs": [
        {
          "indexed": true,
          "internalType": "uint256",
          "name": "txId",
          "type": "uint256"
        },
        {
          "indexed": true,
          "internalType": "address",
          "name": "owner",
          "type": "address"
        }
      ],
      "name": "TransactionConfirmed",
      "type": "event"
    },
    {
      "anonymous": false,
      "inputs": [
        {
          "indexed": true,
          "internalType": "uint256",
          "name": "txId",
          "type": "uint256"
        },
        {
          "indexed": true,
          "internalType": "address",
          "name": "creator",
          "type": "address"
        },
        {
          "indexed": false,
          "internalType": "address",
          "name": "to",
          "type": "address"
        },
        {
          "indexed": false,
          "internalType": "uint256",
          "name": "value",
          "type": "uint256"
        },
        {
          "indexed": false,
          "internalType": "bytes",
          "name": "data",
          "type": "bytes"
        }
      ],
      "name": "TransactionCreated",
      "type": "event"
    },
    {
      "anonymous": false,
      "inputs": [
        {
          "indexed": true,
          "internalType": "uint256",
          "name": "txId",
          "type": "uint256"
        }
      ],
      "name": "TransactionExecuted",
      "type": "event"
    },
    {
      "inputs": [
        {
          "internalType": "uint256",
          "name": "txId",
          "type": "uint256"
        }
      ],
      "name": "confirmTransaction",
      "outputs": [],
      "stateMutability": "nonpayable",
      "type": "function"
    },
    {
      "inputs": [
        {
          "internalType": "uint256",
          "name": "",
          "type": "uint256"
        },
        {
          "internalType": "address",
          "name": "",
          "type": "address"
        }
      ],
      "name": "confirmations",
      "outputs": [
        {
          "internalType": "bool",
          "name": "",
          "type": "bool"
        }
      ],
      "stateMutability": "view",
      "type": "function"
    },
    {
      "inputs": [
        {
          "internalType": "uint256",
          "name": "",
          "type": "uint256"
        }
      ],
      "name": "owners",
      "outputs": [
        {
          "internalType": "address",
          "name": "",
          "type": "address"
        }
      ],
      "stateMutability": "view",
      "type": "function"
    },
    {
      "inputs": [],
      "name": "requiredConfirmations",
      "outputs": [
        {
          "internalType": "uint256",
          "name": "",
          "type": "uint256"
        }
      ],
      "stateMutability": "view",
      "type": "function"
    },
    {
      "inputs": [
        {
          "internalType": "address",
          "name": "intentManager",
          "type": "address"
        },
        {
          "internalType": "address",
          "name": "user",
          "type": "address"
        },
        {
          "internalType": "uint256",
          "name": "intentId",
          "type": "uint256"
        }
      ],
      "name": "submitExecuteIntentTransaction",
      "outputs": [],
      "stateMutability": "nonpayable",
      "type": "function"
    },
    {
      "inputs": [
        {
          "internalType": "address",
          "name": "to",
          "type": "address"
        },
        {
          "internalType": "uint256",
          "name": "value",
          "type": "uint256"
        },
        {
          "internalType": "bytes",
          "name": "data",
          "type": "bytes"
        }
      ],
      "name": "submitTransaction",
      "outputs": [],
      "stateMutability": "nonpayable",
      "type": "function"
    },
    {
      "inputs": [],
      "name": "thresholdAmount",
      "outputs": [
        {
          "internalType": "uint256",
          "name": "",
          "type": "uint256"
        }
      ],
      "stateMutability": "view",
      "type": "function"
    },
    {
      "inputs": [],
      "name": "transactionCount",
      "outputs": [
        {
          "internalType": "uint256",
          "name": "",
          "type": "uint256"
        }
      ],
      "stateMutability": "view",
      "type": "function"
    },
    {
      "inputs": [
        {
          "internalType": "uint256",
          "name": "",
          "type": "uint256"
        }
      ],
      "name": "transactions",
      "outputs": [
        {
          "internalType": "address",
          "name": "to",
          "type": "address"
        },
        {
          "internalType": "uint256",
          "name": "value",
          "type": "uint256"
        },
        {
          "internalType": "bytes",
          "name": "data",
          "type": "bytes"
        },
        {
          "internalType": "bool",
          "name": "executed",
          "type": "bool"
        },
        {
          "internalType": "uint256",
          "name": "confirmations",
          "type": "uint256"
        }
      ],
      "stateMutability": "view",
      "type": "function"
    },
    {
      "stateMutability": "payable",
      "type": "receive"
    }
  ],
  "bytecode": "0x608060405234620001b05762000f6c803803806200001d81620001b5565b928339810190606081830312620001b05780516001600160401b0390818111620001b057820183601f82011215620001b0578051938285116200013f578460051b906020928362000070818501620001b5565b809881520190848294820101928311620001b0578401905b8282106200018f5750505060408285015194015194848151106200015557519283116200013f576801000000000000000083116200013f57600090815484835580851062000117575b5091818052808220915b848110620000fb578686600155600355604051610d909081620001dc8239f35b83516001600160a01b03168382015592810192600101620000db565b8280528484842091820191015b818110620001335750620000d1565b83815560010162000124565b634e487b7160e01b600052604160045260246000fd5b60405162461bcd60e51b8152600481018490526012602482015271496e76616c696420706172616d657465727360701b6044820152606490fd5b81516001600160a01b0381168103620001b057815290840190840162000088565b600080fd5b6040519190601f01601f191682016001600160401b038111838210176200013f5760405256fe60806040526004361015610047575b361561001957600080fd5b6040513481527fe1fffcc4923d04b559f4d29a8bfc6cda04eb5b0d3c460751c2402c5c5cc9109c60203392a2005b60003560e01c8063025e7c2714610aa957806328f4dbb614610a8b5780633411c81c14610a3e57806382e717f714610a205780639ace38c214610912578063ad85ce131461069d578063b77bf6001461067f578063c01a8c84146103725763c64274740361000e573461036d57606036600319011261036d576100c8610b4b565b6044359067ffffffffffffffff80831161036d573660238401121561036d5782600401356100f581610c19565b936101036040519586610bb7565b818552366024838301011161036d5781600092602460209301838801378501015261013561013033610d05565b610c35565b600254916040519161014683610b9b565b60018060a01b0392838316815260208101916024358352604082018781526000606084015260006080840152866000526005602052604060002093868451166bffffffffffffffffffffffff60a01b865416178555516001850155518051918211610357576101b86002850154610b61565b601f8111610310575b50602090601f831160011461029d57918060049492608094600092610292575b50508160011b916000199060031b1c19161760028501555b61021860608201511515600386019060ff801983541691151516179055565b0151910155600254916001830180931161027c577f879b627c1125dd60f22bbabaa934287150acb397acb7d8cbc18235455a51105c92600255604051911681526024356020820152606060408201528061027733956060830190610bd9565b0390a3005b634e487b7160e01b600052601160045260246000fd5b0151905038806101e1565b90601f198316916002860160005260206000209260005b8181106102f8575092600192859260809660049896106102df575b505050811b0160028501556101f9565b015160001960f88460031b161c191690553880806102cf565b929360206001819287860151815501950193016102b4565b600285016000526020600020601f840160051c810160208510610350575b601f830160051c820181106103445750506101c1565b6000815560010161032e565b508061032e565b634e487b7160e01b600052604160045260246000fd5b600080fd5b3461036d5760208060031936011261036d576004359061039461013033610d05565b81600052600580825260018060a01b036103b681604060002054161515610c6d565b836000528183526103d260ff6003604060002001541615610cb9565b8360005260048352604060002033600052835260ff6040600020541661063a578360005260048352604060002033600052835260406000209260019260ff1994848682541617905585600052808252600460406000200180549085820180921161027c575533867f15c2f311c9e0f53b50388279894aeff029a3457884a6601e924fca879e12adcc600080a3856000528082526004604060002001548454111561047857005b61048a83604060002054161515610c6d565b856000528082526104a660ff6003604060002001541615610cb9565b856000528152604060002091838301549060035482106105eb57835416906002840190604051916000908054906104dc82610b61565b918a8a821691826000146105d757505060011461059f575b5050916000939181859403925af13d1561059a573d61051281610c19565b906105206040519283610bb7565b81526000833d92013e5b156105615750600301918254161790557f15ed165a284872ea7017f03df402a0cadfbfab588320ffaf83f160c2f82781c7600080a2005b6064906040519062461bcd60e51b825260048201526012602482015271151c985b9cd858dd1a5bdb8819985a5b195960721b6044820152fd5b61052a565b9091506000528460002085886000925b8484106105c557505050908301905081836104f4565b805484880152019101908887916105af565b1686525050801515028301905081836104f4565b60405162461bcd60e51b815260048101849052602160248201527f5472616e73616374696f6e2076616c75652062656c6f77207468726573686f6c6044820152601960fa1b6064820152608490fd5b60405162461bcd60e51b815260048101849052601d60248201527f5472616e73616374696f6e20616c726561647920636f6e6669726d65640000006044820152606490fd5b3461036d57600036600319011261036d576020600254604051908152f35b3461036d57606036600319011261036d576106b6610b4b565b6106be610b35565b6106ca61013033610d05565b604051635713329360e11b6020808301919091526001600160a01b03928316602483015260448035818401528252909267ffffffffffffffff9060808501828111868210176103575760405261072261013033610d05565b60025493806040519261073484610b9b565b169283835284830190600082526040840190888252606085019260008452608086019460008652896000526005895260406000209651166bffffffffffffffffffffffff60a01b8754161786555160018601556002850191518051918211610357576107a08354610b61565b601f81116108cc575b508790601f831160011461085d5791806107f894926004979694600092610852575b50508160011b916000199060031b1c19161790555b511515600385019060ff801983541691151516179055565b519101556002546001810180911161027c577f879b627c1125dd60f22bbabaa934287150acb397acb7d8cbc18235455a51105c92600091600255604051928352820152606060408201528061027733956060830190610bd9565b015190508c806107cb565b90601f1983169184600052896000209260005b8b8282106108b657505092600192859260049998966107f898961061089d575b505050811b0190556107e0565b015160001960f88460031b161c191690558c8080610890565b6001859682939686015181550195019301610870565b8360005288600020601f840160051c8101918a8510610908575b601f0160051c01905b8181106108fc57506107a9565b600081556001016108ef565b90915081906108e6565b3461036d5760208060031936011261036d5760043560005260058152604060002060018060a01b0381541690600180820154906002830190856040519260009281549161095e83610b61565b808752928281169081156109fe57506001146109c4575b5050505090610989816109b3930382610bb7565b600460ff60038601541694015492604051968796875286015260a0604086015260a0850190610bd9565b911515606084015260808301520390f35b6000908152838120939450925b8284106109eb5750505082010185826109b3610989610975565b80548685018601529284019281016109d1565b60ff191685880152505050151560051b830101905085826109b3610989610975565b3461036d57600036600319011261036d576020600154604051908152f35b3461036d57604036600319011261036d57610a57610b35565b600435600052600460205260406000209060018060a01b0316600052602052602060ff604060002054166040519015158152f35b3461036d57600036600319011261036d576020600354604051908152f35b3461036d57602036600319011261036d5760043560005481101561036d57610ad2602091610aeb565b905460405160039290921b1c6001600160a01b03168152f35b906000918254811015610b21578280527f290decd9548b62a8d60345a988386fc84ba6bc95484008f6362f93160ef3e563019190565b634e487b7160e01b83526032600452602483fd5b602435906001600160a01b038216820361036d57565b600435906001600160a01b038216820361036d57565b90600182811c92168015610b91575b6020831014610b7b57565b634e487b7160e01b600052602260045260246000fd5b91607f1691610b70565b60a0810190811067ffffffffffffffff82111761035757604052565b90601f8019910116810190811067ffffffffffffffff82111761035757604052565b919082519283825260005b848110610c05575050826000602080949584010152601f8019910116010190565b602081830181015184830182015201610be4565b67ffffffffffffffff811161035757601f01601f191660200190565b15610c3c57565b60405162461bcd60e51b81526020600482015260096024820152682737ba1037bbb732b960b91b6044820152606490fd5b15610c7457565b60405162461bcd60e51b815260206004820152601a60248201527f5472616e73616374696f6e20646f6573206e6f742065786973740000000000006044820152606490fd5b15610cc057565b60405162461bcd60e51b815260206004820152601c60248201527f5472616e73616374696f6e20616c7265616479206578656375746564000000006044820152606490fd5b906000918254925b838110610d1c57506000925050565b610d2581610aeb565b905460039190911b1c6001600160a01b0390811690831614610d5257600019811461027c57600101610d0d565b50600192505056fea264697066735822122015aa52ceb27edfb2605a1a7f0343f46ffbc69e5444992bb55913e927440ed5c164736f6c63430008110033",
  "linkReferences": {},
  "deployedLinkReferences": {}
}